:060000000A128A11FC2F18
:100E5C000A128A113C2783160313111408000A1274
:100E6C008A113C27831603131115080083160313EC
:100E7C0011081F39031914193C2F0800F0000A122D
:100E8C008A113C2770088312031393000800831601
:100E9C000313871507162830831203139400831647
:100EAC00031391019401093093000800F1000A1218
:100EBC008A113C270A128A118316031391150A1200
:100ECC008A113C270A128A11831203131308F000AB
:100EDC007008F2000A128A113C270A128A11F108D2
:100EEC00031D7C2F8316031391167F2F8316031378
:100EFC009112111672080800F201F30171087302C5
:100F0C00031D8A2F7008720203180800F401F50102
:100F1C0003307502E830031974020318A22F013054
:100F2C00F4070318F50A0030F50703307502E830B2
:100F3C0003197402031C952F0130F2070318F30AEE
:100F4C000030F307842F83160313860183120313D7
:100F5C008601FF308316031388000A128A114D276D
:100F6C000A128A110A128A112E270A128A111030BB
:100F7C000A128A1144270A128A11831203130808D1
:100F8C000A128A1144270A128A110A128A11352769
:100F9C000A128A11C830F0000030F1000A128A11CE
:100FAC0082270A128A110A128A112E270A128A1112
:100FBC0011300A128A1144270A128A1100300A12BF
:100FCC008A115C270A128A118312031386000A12F3
:100FDC008A1135270A128A11C830F0000030F1004E
:100FEC000A128A1182270A128A11B82F83010A1257
:040FFC008A11A92F7E
:02400E0071FF40
:00000001FF
