:060000000A128A11122809
:10000800FE00030EF8000408F9000A08FA0083123B
:1000180003137F08FB000A128A1119280A128A1191
:10002800152883010A128A11F828FC01FD018B1397
:100038000C1FB5280C130A128A11C4200A128A113F
:100048007308FD01FD077208FC01FC07FD1B3B2836
:100058007D08803AFF0080307F02031D3528AA30D2
:100068007C0203183B28831203138601B5287D08F8
:10007800803AFF0080307F02031D4428AA307C02AA
:10008800031C53287D08803AFF0081307F02031D3E
:100098004F2855307C02031853280130B2287D08B8
:1000A800803AFF0081307F02031D5C2855307C02B6
:1000B800031C6B287D08803AFF0082307F02031DF5
:1000C800672800307C0203186B280330B2287D08AB
:1000D800803AFF0082307F02031D742800307C02C2
:1000E800031C83287D08803AFF0082307F02031DAD
:1000F8007F28AB307C02031883280730B2287D089C
:10010800803AFF0082307F02031D8C28AB307C02CE
:10011800031C9B287D08803AFF0083307F02031D63
:10012800972856307C0203189B280F30B2287D0888
:10013800803AFF0083307F02031DA42856307C02DA
:10014800031CB5287D08803AFF0084307F02031D18
:10015800AF2801307C020318B5281F30831203131F
:100168008600831203131F158B177B08FF007A087C
:100178008A0079088400780E8300FE0E7E0E09003E
:10018800F601F701E830F0000330F1000A128A1195
:1001980010210A128A11831203131F151F19D2285E
:1001A8001E08F400F5017408F6007508F7007708D2
:1001B800F5007608F4007408F500F4017408F600F8
:1001C8007508F7007608831603131E04F4007708F1
:1001D800F5007408F6007508F7007708F301F307CF
:1001E8007608F201F20708008316031386018312CA
:1001F800031386018030831603139F004130831256
:1002080003139F00831603130C17831203130C1395
:100218000B178B171F150F29FF30F0070318F10A6A
:10022800FF30F107FF307106031D1C29FF307006EF
:0602380003190800102963
:02400E0071FF40
:00000001FF
