:060000000A128A11FC2F18
:100E9C00F201F30171087302031D562F70087202E0
:100EAC0003180800F401F50103307502E83003194A
:100EBC00740203186E2F0130F4070318F50A003082
:100ECC00F50703307502E83003197402031C612F17
:100EDC000130F2070318F30A0030F307502F1930D2
:100EEC008316031399001812831203139817831691
:100EFC000313181318159816FF308312031386006A
:100F0C000F30F0000030F1000A128A114E270A123D
:100F1C008A1183120313061E862F06080F39F6005A
:100F2C007608F900F908031D9F2F0130F7000030F7
:100F3C00F8007908013A031DA72F0230F7000030A2
:100F4C00F8007908023A031DAF2F0330F700003088
:100F5C00F8007908043A031DB72F0430F70000306D
:100F6C00F8007908053A031DBF2F0530F700003053
:100F7C00F8007908063A031DC72F0630F700003039
:100F8C00F8007908083A031DCF2F0730F70000301E
:100F9C00F8007908093A031DD72F0830F700003004
:100FAC00F80079080A3A031DDF2F0930F7000030EA
:100FBC00F80079080D3A0319EB2F79080C3A03194C
:100FCC00EB2F79080E3A031DED2FF701F8013030A5
:100FDC00F7070318F80A0030F80783160313981C58
:100FEC00F32F7708831203139900862F83010A12BB
:040FFC008A11752FB2
:02400E0071FF40
:00000001FF
