:060000000A128A11FC2F18
:100EF8000A128A118A2783160313111408000A128A
:100F08008A118A2783160313111508008316031301
:100F180011081F39031914198A2F0800F0000A1242
:100F28008A118A2770088312031393000800831616
:100F380003138715071628308312031394008316AA
:100F4800031391019401093093000800F201F301A1
:100F580071087302031DB22F70087202031808008B
:100F6800F401F50103307502E8300319740203181F
:100F7800CA2F0130F4070318F50A0030F5070330CB
:100F88007502E83003197402031CBD2F0130F20703
:100F98000318F30A0030F307AC2FFF30831603134E
:100FA80088000A128A119B270A128A110A128A11CA
:100FB8007C270A128A1110300A128A1192270A1203
:100FC8008A118312031308080A128A1192270A1237
:100FD8008A110A128A1183270A128A11C830F0006E
:100FE8000030F1000A128A11AA270A128A11DA2F90
:080FF80083010A128A11D12FB6
:02400E0071FF40
:00000001FF
