:060000000A128A11FC2F18
:100F3400F201F30171087302031DA22F70087202FB
:100F440003180800F401F50103307502E8300319B1
:100F540074020318BA2F0130F4070318F50A00309D
:100F6400F50703307502E83003197402031CAD2F32
:100F74000130F2070318F30A0030F3079C2FFF3007
:100F8400831603138500860106309F008312031322
:100F940086010508013A031DC82FF601F7017708F9
:100FA400803AFF0080307F02031DDA2F033076027F
:100FB4000318C82F01308312031386003230F00067
:100FC4000030F1000A128A119A270A128A11831238
:100FD400031386011930F0000030F1000A128A115F
:100FE4009A270A128A110130F6070318F70A00300B
:0C0FF400F707D12F83010A128A11C12FC8
:02400E0071FF40
:00000001FF
