:060000000A128A11122809
:10000800FE00030EF0000408F1000A08F200831253
:1000180003137F08F3000A128A111B280A128A1197
:100028001528F401F50183010A128A1165288B133A
:100038008B1C54288B100130F4070318F50A003084
:10004800F50788010A128A1179200A128A110A1200
:100058008A1179200A128A110A128A1179200A1241
:100068008A110A128A1179200A128A110A128A112F
:1000780079200A128A110A128A1179200A128A1121
:100088000A128A1179200A128A110A128A11792011
:100098000A128A110A128A1179200A128A1157281B
:1000A8000B1D57280B118B17730883120313FF00BE
:1000B80072088A0071088400700E8300FE0E7E0E9E
:1000C80009000730831603139F00FF30850088015D
:1000D800843081008B160B118B1783120313880150
:1000E800FF308600FF3088007628313083120313F2
:1000F8009000CE308F0031308E008B170B17101404
:080108000C1C84280C100800F7
:02400E0071FF40
:00000001FF
