:060000000A128A11F02F24
:100D440059346F34753420347034723465347334E8
:100D5400733465346434203400347E088A007F0898
:100D64008200AF260A128A118000840A04087D06D4
:100D740003190034FF0A0319FE0AB32EF60076089D
:100D8400F2007208F70077088400831380080319BF
:100D9400D02E0130F2007208F707C52E7608F20053
:100DA4000030F300F209F309F20A0319F30A770891
:100DB400F4000030F50072087407F000730803189B
:100DC400730A7507F1000800F201F3017108730258
:100DD400031DEE2E7008720203180800F401F501D9
:100DE40003307502E830031974020318062F01302A
:100DF400F4070318F50A0030F50703307502E830EC
:100E040003197402031CF92E0130F2070318F30AC4
:100E14000030F307E82E83120313AD002030840062
:100E24003330F8000408F9000D30FA007808840023
:100E340083130008FB00F80A790884007B0880000B
:100E4400F90AFA0B182FAE01AF0120300A128A11E9
:100E5400C0260A128A117108831203132F02031D7C
:100E6400352F70082E0203184A2F83160313981C7B
:100E7400372F831203132E08203E840083130008A7
:100E840099000130AE070318AF0A0030AF07272FCF
:100E940083160313981C4A2F831203132D089900F9
:100EA40083160313981C522F2E30831203139900B8
:100EB40083160313981C5A2F0D30831203139900C1
:100EC40008001930831603139900181283120313B0
:100ED400981783160313181318159816FF308312E6
:100EE400031386000F30F0000030F1000A128A115B
:100EF400E6260A128A1183120313061E742F0608AB
:100F04000F39FC007C08B200B208031D8D2F01309C
:100F1400B0000030B1003208013A031D952F0230B1
:100F2400B0000030B1003208023A031D9D2F033097
:100F3400B0000030B1003208043A031DA52F04307C
:100F4400B0000030B1003208053A031DAD2F053062
:100F5400B0000030B1003208063A031DB52F063048
:100F6400B0000030B1003208083A031DBD2F07302D
:100F7400B0000030B1003208093A031DC52F083013
:100F8400B0000030B10032080A3A031DCD2F0930F9
:100F9400B0000030B10032080D3A031DD32FB00168
:100FA400B10132080C3A031DDB2FFA30B000FF30D8
:100FB400B10032080E3A031DE32FF330B000FF30C6
:100FC400B1003030B0070318B10A0030B10730085F
:100FD4000A128A110D270A128A11742F83134030C2
:100FE400FD000630FE00A230FF00333084000A12F8
:0C0FF4008A11B32683010A128A11632FB0
:02400E0071FF40
:00000001FF
