:060000000A128A11122809
:10000800FE00030EF1000408F2000A08F300831250
:1000180003137F08F4000A128A111B280A128A1196
:100028001528F701F80183010A128A117E288B131B
:100038008B1C22288B100430F70672280B1D72289F
:100048000B11061C712808080F39F0007008F80019
:10005800F808031D3128013087007808013A031D8C
:100068003728023087007808023A031D3D280330FC
:1000780087007808043A031D43280430870078086D
:10008800053A031D4928053087007808063A031DFC
:100098004F28063087007808083A031D552807308E
:1000A80087007808093A031D5B280830870078081C
:1000B8000A3A031D61280930870078080D3A0319A8
:1000C800870178080C3A031D6B280F3087007808E1
:1000D8000E3A031D71280F30870077148B177408A8
:1000E800FF0073088A0072088400710E8300FE0EF8
:1000F8007E0E09000730831603139F008501FF3029
:1001080086008701FF308800C43081008B160B11F0
:100118008B178312031385018701FF3083120313A2
:1001280085000C30F5000030F6000A128A11AB2069
:100138000A128A118312031385010C30F50000306E
:10014800F6000A128A11AB200A128A11912883122A
:100158000313A101A201831203132208803AA0000D
:100168007608803A2002031DBB287508210203186F
:100178000800771CAF287710013083120313A107FA
:0A0188000318A20A0030A207AF28F6
:02400E0071FF40
:00000001FF
