:060000000A128A11122809
:10000800FE00030EF1000408F2000A08F300831250
:1000180003137F08F4000A128A111A280A128A1197
:100028001528F50183010A128A1176288B138B1C77
:100038006A288B10061C6A2808080F39F000700817
:10004800F500F508031D2A28013087007508013AD4
:10005800031D3028023087007508023A031D362830
:10006800033087007508043A031D3C2804308700D4
:100078007508053A031D4228053087007508063AB9
:10008800031D4828063087007508083A031D4E28C6
:10009800073087007508093A031D5428083087007F
:1000A80075080A3A031D5A280930870075080D3A61
:1000B8000319870175080C3A031D64280F3087005F
:1000C80075080E3A031D6A280F3087008B177408CD
:1000D800FF0073088A0072088400710E8300FE0E08
:1000E8007E0E09000730831603139F008501FF3039
:1000F80086008701FF30880001170B168B108B17BD
:0801080083120313870187280D
:02400E0071FF40
:00000001FF
