:060000000A128A11122809
:10000800FE00030EF1000408F2000A08F300831250
:1000180003137F08F4000A128A111C280A128A1195
:100028001528F601F701F80183010A128A118328BD
:100038008B138B1C23288B100230F60677280B1D98
:1000480077280B11061C762808080F39F00070086D
:10005800F700F708031D3228F801F80A7708013A73
:10006800031D3A280230F0007008F8007708023AB9
:10007800031D42280330F0007008F8007708043A9E
:10008800031D4A280430F0007008F8007708053A84
:10009800031D52280530F0007008F8007708063A6A
:1000A800031D5A280630F0007008F8007708083A4F
:1000B800031D62280730F0007008F8007708093A35
:1000C800031D6A280830F0007008F80077080A3A1B
:1000D800031D72280930F0007008F80077080D3AFF
:1000E8000319F80176148B177408FF0073088A0047
:1000F80072088400710E8300FE0E7E0E0900073020
:10010800831603139F008501FF3086008701FF30A7
:100118008800C43081008B160B118B1783120313D0
:10012800850187017808093A031DA0280930831240
:1001380003138700F801DF28F808031DA728831296
:1001480003138701D9287808013A031DAD28013027
:10015800D6287808023A031DB3280230D628780832
:10016800033A031DB9280330D6287808043A031D3A
:10017800BF280430D6287808053A031DC52805305D
:10018800D6287808063A031DCB280630D6287808E2
:10019800073A031DD1280730D6287808083A031DE6
:1001A800D928083083120313870001308312031300
:1001B800A4002408F8070A30A0000030A1000A12A1
:1001C8008A11E9200A128A11962883120313A201C0
:1001D800A301831203132308803AF5002108803A0B
:1001E8007502031DF9282008220203180800761C4E
:1001F800ED287610013083120313A2070318A30A0F
:060208000030A307ED2801
:02400E0071FF40
:00000001FF
