:060000000A128A11FC2F18
:100DD2007108F301F3077008F201F2077308720455
:100DE20003190800F401F5017508803AFF00833009
:100DF2007F02031DFE2EE83074020318112F01300A
:100E0200F4070318F50A0030F5077508803AFF0069
:100E120083307F02031D0F2FE8307402031C002F62
:100E2200FF30F2070318F30AFF30F307EF2EFF300B
:100E32008316031386007C3092005730831203130B
:100E420095002C3097008316031387018312031336
:100E52000711063092000130F8000030F90001302D
:100E6200F6000030F700F430F0000130F1000A1211
:100E72008A11E9260A128A1183120313861C6B2F28
:100E8200033078067904031D4B2F0130F80000303F
:100E9200F9005B2F0130F8070318F90A0030F9074F
:100EA2005B2F6930572F7030572F3E308316031354
:100EB20092006B2F7908003A0319602F6B2F780884
:100EC200013A0319522F033A0319542F013A031915
:100ED200562F6B2F8312061D342F053076067704AA
:100EE200031D782F0130F6000030F7007E2F01300D
:100EF200F6070318F70A0030F7070130780679047D
:100F020003198E2FA52F7130DD2F1A30E12F3530C6
:100F1200DD2F4F30E12F3130E12F7708003A0319EE
:100F2200932F342F7608013A0319842F033A0319B9
:100F3200862F013A0319882F073A03198A2F013A9B
:100F420003198C2F342F342F0230780679040319B9
:100F5200B52FCC2F3E30E12F9C30D92F3830E12FE6
:100F6200D430D52F5130D52F7708003A0319BA2F34
:100F7200342F7608013A0319AB2F033A0319AD2F28
:100F8200013A0319AF2F073A0319B12F013A031996
:100F9200B32F342F342F0330780679040319E52F49
:100FA200342F0630D92F0F3095003C30E32F1F30FD
:100FB20095001C30E32F2F3095000C30E32F3B308F
:100FC20095002C309700342F7708003A0319EA2F46
:100FD200342F7608013A0319D22F033A0319D42F7A
:100FE200013A0319D82F073A0319DC2F013A0319E2
:0E0FF200E02F342F342F83010A128A11182F9A
:02400E0071FF40
:00000001FF
