:100000000A128A11F02F831203132308A600240872
:10001000A7002508A8000310270D280DA90029080E
:10002000AE00AE08031D1B280030A0000030A10068
:100030000030A20008002008A6002108A70022081E
:10004000A8000310270D280DA9002908AF00AF084C
:10005000031D31280030A0000030A1000030A200B4
:1000600008000030AB000030AC000030AD0089303B
:100070002F07A6002608AE022308A6002408A70022
:100080002508A80010300310A80CA70CA60CFF3EF2
:10009000031D43282608A9002908AF002008A60050
:1000A0002108A7002208A80010300310A80CA70CF4
:1000B000A60CFF3E031D55282608A9002908AF06F7
:1000C0008030A6002608AF05A417FF30A305FF3037
:1000D000A4050030A505A117FF30A005FF30A1053C
:1000E0000030A2051830A6002608AA00013003102F
:1000F000AB0DAC0DAD0DFF3E031D77282208250288
:10010000031D882821082402031D882820082302B3
:10011000031C95282008A3022108031C210FA40218
:100120002208031C220AA5022B1401300310A30D80
:10013000A40DA50DFF3E031D96280130AA02031D44
:1001400076282B08F0002C08F1002D08F2002E086C
:10015000A6002608F3002F08A7002708F4000A16B7
:100160008A117425700883120313A0007108A1007E
:100170007208A200080083120313CF006E304F02F2
:10018000031C9B290330C3004308A4000A30F70076
:100190000030F8004F08C400C5014408F2004508CB
:1001A000F3006430F0000030F1000A168A110F24C9
:1001B0000A128A117108FA01FA077008F901F907A1
:1001C0000A168A11B9240A128A117708093E0A16FA
:1001D0008A11AB220A128A11293E84000A168A115A
:1001E00000200A128A1183120313B0000A168A1122
:1001F00000200A128A11B1000A168A1100200A1280
:100200008A11B2000330C6004608A4006430F7002B
:100210000030F8004F08C700C8014708F900480837
:10022000FA000A168A11B9240A128A117708123EB6
:100230000A168A11AB220A128A11293E84000A1674
:100240008A1100200A128A1183120313B3000A16BE
:100250008A1100200A128A11B4000A168A1100209D
:100260000A128A11B5000A168A112D270A128A115C
:10027000831203133008CC003108CD003208CE00C1
:100280000330C3004308A4004F08C400C50144085C
:10029000F2004508F3000A30F0000030F1000A16C1
:1002A0008A110F240A128A1170080A168A11AB22C9
:1002B0000A128A11293E84000A168A1100200A12A5
:1002C0008A1183120313B0000A168A1100200A1241
:1002D0008A11B1000A168A1100200A128A11B2008E
:1002E0004C08B3004D08B4004E08B5000A168A1138
:1002F0002D270A128A11831203133008C90031080E
:10030000CA003208CB000030B0000030B1003F30EE
:10031000B2004908B3004A08B4004B08B5000A16F9
:100320008A112D27831203133008C0003108C10041
:100330003208C20008000B304F02031C252A03308C
:10034000C3004308A4004F08C400C5014408F200DC
:100350004508F3000A30F0000030F1000A168A1157
:100360000F240A128A1170080A168A11AB220A1287
:100370008A11293E84000A168A1100200A128A1165
:1003800083120313B0000A168A1100200A128A1180
:10039000B1000A168A1100200A128A11B200033035
:1003A000C6004608A4000A30F7000030F8004F08E5
:1003B000C700C8014708F9004808FA000A168A1160
:1003C000B9240A128A117708093E0A168A11AB224B
:1003D0000A128A11293E84000A168A1100200A1284
:1003E0008A1183120313B3000A168A1100200A121D
:1003F0008A11B4000A168A1100200A128A11B50067
:100400000A168A112D270A128A1183120313300843
:10041000CC003108CD003208CE000030B0000030F2
:10042000B1003F30B2004C08B3004D08B4004E0894
:10043000B5000A168A112D27831203133008C00055
:100440003108C1003208C20008000030B00000309E
:10045000B1003F30B2000330C3004308A4004F088E
:100460000A168A11AB220A128A11293E84000A1642
:100470008A1100200A128A1183120313B3000A168C
:100480008A1100200A128A11B4000A168A1100206B
:100490000A128A11B5000A168A112D278312031336
:1004A0003008C0003108C1003208C20008008316BD
:1004B0000313BD00643083120313E700670883163B
:1004C0000313A70001308312E307FF3063078400A2
:1004D0000A168A1100200A128A11E700670883169B
:1004E0000313C100C1080319EB2F4108253A031972
:1004F0007D2A410883120313DA2FB001B101822A49
:100500003115982A013083120313E307FF30630784
:1005100084000A168A1100200A128A118316031316
:10052000C100003A0319EB2F663A0319802A622AA8
:100530000030300583120313E700073083160313DE
:10054000310583120313E800680867040319C72FF5
:10055000063083160313B2000030B300270884006E
:1005600083130008BE00840A0008BF00840A000844
:10057000C000033083120313E700670883160313D8
:10058000A7073E08F0003F08F1004008F2000030E5
:10059000F3000030F4000030F5000A168A115C24E4
:1005A0000A128A110318ED2A831603133E08F0007D
:1005B0003F08F1004008F2000A168A115D220A1273
:1005C0008A11700883160313BE007108BF007208F9
:1005D000C0000330B0040030B10483160313BB0124
:1005E000BC0140083F043E040319E92BBE308400DF
:1005F0008313000883120313E700840A0008E8004D
:10060000840A0008E900840A0008EA000F30031099
:10061000EA0CE90CE80CE70CFF3E031D072BFF304A
:100620006705EB0000306805EC006B08823E83161E
:100630000313BB00831203136C080318013EFF3E33
:1006400083160313BC00FF30BB070318BC0AFF303E
:10065000BC070330F0000030F1003C08F301F30761
:100660003B08F201F2070A168A1107230A128A11BF
:10067000710883160313BC01BC077008BB01BB07DC
:100680000A30F7000030F8003C08FA01FA073B088E
:10069000F901F9070A168A11B9240A128A11780891
:1006A00083160313BC01BC077708BB01BB07BC1F43
:1006B0005F2BFF30BB070318BC0AFF30BC073B03AE
:1006C000FF3A0A128A156F220A128A118312031343
:1006D000400883160313B8008312031341088316DE
:1006E0000313B90083120313420883160313BA00DD
:1006F0003E0883120313B000831603133F088312CE
:100700000313B10083160313400883120313B200CE
:1007100083160313380883120313B30083160313DD
:10072000390883120313B400831603133A088312A3
:100730000313B5000A168A112D270A128A11831293
:100740000313300883160313B80083120313310810
:1007500083160313B900831203133208831603139D
:10076000BA003808F0003908F1003A08F200003009
:10077000F3008030F4003F30F5000A168A115C2443
:100780000A128A110318CC2BFF3083160313BB0700
:100790000318BC0AFF30E82B831603133808F00057
:1007A0003908F1003A08F2000030F3002030F4007C
:1007B0004130F5000A168A115C240A128A11031CC2
:1007C000E92B013083160313BB070318BC0A003062
:1007D000BC07831603133308803AFF0080307F0282
:1007E000031DF42B0D30320203182F2C8316031334
:1007F00032080A128A11BB200A128A1183120313CB
:100800004008D0004108D1004208D20083160313EB
:100810003E0883120313D300831603133F08831289
:100820000313D40083160313400883120313D50067
:100830000A128A1534200A128A11831203135008EF
:1008400083160313BE008312031351088316031388
:10085000BF0083120313520883160313C0008316CC
:1008600003133C08803AFF0080307F02031D3A2CBE
:100870000A303B0203186D2C8316031340083F0413
:100880003E040319CE2C3E0883120313C9008316BD
:1008900003133F0883120313CA008316031340088F
:1008A00083120313CB000A168A11DC250A128A115F
:1008B000831203134C084B044A044904031DCE2C35
:1008C000831603133C08803AFF0080307F02031D2B
:1008D0006B2C02303B02031CCE2C8316031338080A
:1008E000F0003908F1003A08F2007030F300893066
:1008F000F4004030F5000A168A115C240A128A11AD
:100900000318842CF730852CF83083160313BB07AB
:100910000318BC0AFF30BC073B080A128A156F2275
:100920000A128A1183120313400883160313B800B6
:1009300083120313410883160313B90083120313B0
:10094000420883160313BA003E08F0003F08F10086
:100950004008F2003808F3003908F4003A08F500BE
:100960000A168A116A260A128A117308831603135B
:10097000A6007208A5007108A4007008A30026084C
:10098000B7002508B6002408B5002308B4000030DD
:10099000BE000030BF000030C0003D2D83160313A1
:1009A0003E0883120313C900831603133F08831202
:1009B0000313CA0083160313400883120313CB00EA
:1009C0000A168A11DC250A128A11831203134C08B5
:1009D00083160313B700831203134B088316031304
:1009E000B600831203134A0883160313B50083125B
:1009F0000313490883160313B4003708FB003608B5
:100A0000FA003508F9003408F8000A128A1509209E
:100A10000A128A11780883120313DD007908DE00B8
:100A20007A08DF00831603133E0883120313E000E5
:100A3000831603133F0883120313E1008316031385
:100A4000400883120313E2000A168A11EB220A12ED
:100A50008A11831203135D0883160313BE008312E9
:100A600003135E0883160313BF00831203135F088A
:100A700083160313C000BB01BC01C101C10A4108B8
:100A80000A3A0319932D410883120313E70001303A
:100A90000310E70DFF3E031D482D0310670D013EB7
:100AA00084000A168A1100200A128A11E8000A1628
:100AB0008A1100200A128A11E9000A168A11002000
:100AC0000A128A11EA000A168A1100200A128A11F3
:100AD000EB006B08831603133702031D852D831269
:100AE00003136A08831603133602031D852D831230
:100AF00003136908831603133502031D852D831222
:100B000003136808831603133402031C932D01306A
:100B100083120313E700670883160313C107410814
:100B20000A3A031D432D0330300583120313E700F7
:100B3000003083160313310583120313E80068089D
:100B400067040319B42D2D30E700831603133D0805
:100B50008400831203136708831780000130E700C5
:100B6000670883160313BD07FF308312E700670889
:100B700083160313C1074108FF3A03193B2E4108AE
:100B800083120313E70001300310E70DFF3E031D3E
:100B9000C42D0310670D013E84000A168A1100203F
:100BA0000A128A11F0000A168A1100200A128A110C
:100BB000F1000A168A1100200A128A11F2000A16A0
:100BC0008A1100200A128A11F300831603133708D2
:100BD000F7003608F6003508F5003408F4000A1668
:100BE0008A1116250A128A11730883160313AB00A3
:100BF0007208AA007108A9007008A8000030F3006C
:100C00000030F2000030F1000A30F0002B08F7004D
:100C10002A08F6002908F5002808F4000A168A11A7
:100C2000C3230A128A11730883160313AB007208D8
:100C3000AA007108A9007008A8002808303E831295
:100C40000313A42D303083120313E700831603131C
:100C50003D08840083120313670883178000013066
:100C6000E700670883160313BD07FF30BB070318AF
:100C7000BC0AFF30BC073C08803AFF0080307F028E
:100C8000031D442E01303B020318222E831603134A
:100C90003308803AFF0080307F02031D512E093057
:100CA0003202031C552E0830582E831603133208C7
:100CB00083120313E700670883160313C10041087A
:100CC00083120313E700E801E71BE80367088316B4
:100CD0000313B20283120313680883160313031C61
:100CE000B303B30241080319882E2E308312031375
:100CF000E700831603133D0884008312031367087B
:100D0000831780000130E700670883160313BD07CF
:100D100041080A128A156F220A128A1183120313DC
:100D2000400883160313A00083120313410883169F
:100D30000313A10083120313420883160313A200B6
:100D4000200883120313B3008316031321088312B0
:100D50000313B40083160313220883120313B50090
:100D6000831603133E0883120313B0008316031384
:100D70003F0883120313B100831603134008831244
:100D80000313B2000A168A112D270A128A11831240
:100D900003133008C9003108CA003208CB000A1614
:100DA0008A11DC250A128A11831203134C08831658
:100DB0000313B700831203134B0883160313B60003
:100DC000831203134A0883160313B5008312031317
:100DD000490883160313B400FF3083120313E7009E
:100DE000670883160313C1074108FF3A0319C22F8E
:100DF000410883120313E70001300310E70DFF3EA3
:100E0000031DFD2E0310670D013E84000A168A1192
:100E100000200A128A11F0000A168A1100200A1214
:100E20008A11F1000A168A1100200A128A11F200B2
:100E30000A168A1100200A128A11F300831603137E
:100E40003708F7003608F6003508F5003408F400D6
:100E50000A168A1116250A128A11730883160313BB
:100E6000AF007208AE007108AD007008AC00003031
:100E7000F3000030F2000030F1000A30F0002F08DB
:100E8000F7002E08F6002D08F5002C08F4000A16CD
:100E90008A11C3230A128A11730883160313AF0041
:100EA0007208AE007108AD007008AC002C08303E2E
:100EB00083120313E700831603133D088400831293
:100EC00003136708831780000130E7006708831663
:100ED0000313BD07410883120313E7000130031019
:100EE000E70DFF3E031D6F2F0310670D013E8400C9
:100EF0000A168A1100200A128A11F0000A168A11B5
:100F000000200A128A11F1000A168A1100200A1222
:100F10008A11F2000A168A1100200A128A11F300BF
:100F2000831603133708F7003608F6003508F50076
:100F30003408F4000A168A11C3230A128A117308AE
:100F400083160313B7007208B6007108B500700865
:100F5000EB2E303083120313E700831603133D0892
:100F60008400831203136708831780000130E700B1
:100F7000670883160313BD07FF30B2070318B30ACF
:100F8000FF30B307330832040319622AA92F033054
:100F900083160313300583120313E7000030831612
:100FA0000313310583120313E8006808670403196B
:100FB000622A2D30E700831603133D088400831254
:100FC00003136708831780000130E7006708831662
:100FD0000313BD07622A3D088400831780010800BF
:100FE0008317DA30FD001230FE00D230FF00C1302E
:100FF00084000A168A11782283010A128A150E2D9E
:10100000F0000A168A115522700883120313930008
:1010100008008E30FC007C08FD00FF307B050319C2
:101020001F2801300310FB0CFA0CF90CF80CFF3EE2
:10103000031D12280130FC007C08FD070D287808EC
:10104000F0007908F1007A08F2007D08FC007C08C5
:10105000F300F4010A168A1174257008F80071086B
:10106000F9007208FA000800831203135008D60032
:101070005108D7005208D8000310570D580DD90059
:101080005908DC005308D6005408D7005508D8008A
:101090000310570D580DD9005908DB005C080319DF
:1010A0005D285B085C02031864285C03FF3A5B0759
:1010B000D60019305602031C64285308D000540887
:1010C000D1005508D20008005B08031908005C082D
:1010D0005B02031873285B03FF3A5C07D6001930E4
:1010E0005602031808000630D6005608DA00D21B54
:1010F000DA17D51B5A17D117FF30D005FF30D105AD
:101100000030D205D417FF30D305FF30D4050030AE
:10111000D5055B085C020318B32801300310D30D1A
:10112000D40DD50DFF3E031D8E280130DB025B0878
:101130005C060319AE280130DA025A080739031990
:10114000AE288D2801300310D20CD10CD00CFF3EFC
:10115000031DA3280130D6005608DC075C085B0697
:101160000319DC28A2285C085B020318DC28013084
:101170000310D00DD10DD20DFF3E031DB828013054
:10118000DC025B085C060319D8280130DA025A0831
:1011900007390319D828B72801300310D50CD40C0F
:1011A000D30CFF3E031DCD280130D6005608DB07C7
:1011B0005C085B06031DCC28DA1FEE28FF30D00642
:1011C000FF30D106FF30D2060130D00700300318BF
:1011D0000130D107003003180130D2075A1F00290F
:1011E000FF30D306FF30D406FF30D5060130D307D9
:1011F000003003180130D407003003180130D50740
:10120000DA015008D307510803110318510A031DCE
:10121000D407520803110318520A031DD507D51F1E
:101220002329FF30D306FF30D406FF30D506013026
:10123000D307003003180130D40700300318013001
:10124000D507DA01DA0A5308F0005408F10055080E
:10125000F2005C08D6005608F3005A08D700570879
:10126000F4000A168A117425700883120313D00043
:101270007108D1007208D2000800703084000008A4
:10128000F600840A0008F700840A0008F800840ABF
:101290000008F9000310780D790DFA007A0883121E
:1012A0000313A500A508031D5E290030F3000030DC
:1012B000F2000030F1000030F000080073308400CC
:1012C0000008F600840A0008F700840A0008F80005
:1012D000840A0008F9000310780D790DFA007A08E5
:1012E000A400A408031D7D290030F3000030F200A3
:1012F0000030F1000030F000080070308400003051
:101300008004840A00308004840A80308004840AC7
:101310000030800470308400FF308005840AFF3084
:101320008005840AFF308005840A00308005733010
:10133000840000308004840A00308004840A8030F5
:101340008004840A0030800473308400FF308005FC
:10135000840AFF308005840AFF308005840A00304B
:1013600080050030A3000030A2000030A100003052
:10137000A0007F30A502A0302407F6007608A50261
:101380002030F6007608A4000130F6000310A00D0E
:10139000A10DA20DA30DF60BC62973308400000821
:1013A000F600840A0008F700840A0008F800840A9E
:1013B0000008F900703084000008FA00840A000870
:1013C000FB00840A0008FC00840A0008FD0079087C
:1013D0007D02031DF52978087C02031DF529770895
:1013E0007B02031DF52976087A02031C1A2A733042
:1013F00084000008F600840A0008F700840A000848
:10140000F800840A0008F900703084007608800231
:10141000840A7708031C770F8002840A7808031C6B
:10142000780F8002840A7908031C790A800203304D
:1014300084022014703084000310800D840A800D13
:10144000840A800D840A800D8403840384030130A0
:10145000A402031DC429A51F4B2A2508803A9F3EDC
:1014600003183B2A0030F3000030F2000030F10096
:101470000030F000080001300310A30CA20CA10CF6
:10148000A00CFF3E031D3C2A0130F6007608A5079C
:101490000319662A3B2A20302502031C632A0030E8
:1014A000F3000030F2000030F1000030F0000800DE
:1014B0000130F6000310A00DA10DA20DA30DF60B37
:1014C0005A2A0130A502A508031D582A2308F30053
:1014D0002208F2002108F1002008F0000800831221
:1014E0000313C800C81FC22BC809C80A4808803A9D
:1014F000123E031C352B0330C3004308A4000A30FE
:10150000F7000030F8004808F200F301F21BF30383
:101510006430F0000030F1000A168A110F240A121C
:101520008A157108FA01FA077008F901F9070A1615
:101530008A11B9240A128A157708093E0A168A11F7
:10154000AB220A128A15293E84000A168A1100204D
:101550000A128A1583120313B0000A168A1100209A
:101560000A128A15B1000A168A1100200A128A1579
:10157000B2000330C4004408A4006430F700003017
:10158000F8004808F900FA01F91BFA030A168A1153
:10159000B9240A128A157708123E0A168A11AB225C
:1015A0000A128A15293E84000A168A1100200A129E
:1015B0008A1583120313B3000A168A1100200A1237
:1015C0008A15B4000A168A1100200A128A15B5007D
:1015D0000A168A112D270A128A158312031330085E
:1015E000C5003108C6003208C7000330C3004308F5
:1015F000A4004808F200F301F21BF3030A30F000E4
:101600000030F1000A168A110F240A128A15700898
:101610000A168A11AB220A128A15293E84000A167C
:101620008A1100200A128A1583120313B0000A16C9
:101630008A1100200A128A15B1000A168A110020A8
:101640000A128A15B2004508B3004608B4004708DC
:10165000B5000A168A112D27831203133008C00023
:101660003108C1003208C20008004808803A753EBF
:10167000031CA32B0330C3004308A4004808F20056
:10168000F301F21BF3030A30F0000030F1000A16F8
:101690008A110F240A128A1570080A168A11AB22C1
:1016A0000A128A15293E84000A168A1100200A129D
:1016B0008A1583120313B0000A168A1100200A1239
:1016C0008A15B1000A168A1100200A128A15B20082
:1016D0000330C4004408A4000A30F7000030F800CA
:1016E0004808F900FA01F91BFA030A168A11B9240D
:1016F0000A128A157708093E0A168A11AB220A12C5
:101700008A15293E84000A168A1100200A128A15B9
:1017100083120313B3000A168A1100200A128A15D5
:10172000B4000A168A1100200A128A15B5000A169A
:101730008A112D27831203133008C0003108C1001D
:101740003208C20008000330C3004308A400480860
:101750000A168A11AB220A128A15293E84000A163B
:101760008A1100200A128A1583120313C0000A1678
:101770008A1100200A128A15C1000A168A11002057
:10178000C20008004808803A123E031C812C033036
:10179000C3004308A4000A30F7000030F8004808EE
:1017A000F200F301F21BF3036430F0000030F100AB
:1017B0000A168A110F240A128A157108FA01FA070B
:1017C0007008F901F9070A168A11B9240A128A1554
:1017D0007708093E0A168A11AB220A128A15503E72
:1017E00084000A168A1100200A128A158312031334
:1017F000B0000A168A1100200A128A15B1000A16D2
:101800008A1100200A128A15B2000330C40044086D
:10181000A4006430F7000030F8004808F900FA012D
:10182000F91BFA030A168A11B9240A128A157708D5
:10183000123E0A168A11AB220A128A15503E840003
:101840000A168A1100200A128A1583120313B300A4
:101850000A168A1100200A128A15B4000A168A1183
:1018600000200A128A15B5000A168A112D270A12BD
:101870008A15831203133008C5003108C6003208E8
:10188000C7000330C3004308A4004808F200F30176
:10189000F21BF3030A30F0000030F1000A168A113F
:1018A0000F240A128A1570080A168A11AB220A122E
:1018B0008A15503E84000A168A1100200A128A15E1
:1018C00083120313B0000A168A1100200A128A1527
:1018D000B1000A168A1100200A128A15B2004508C2
:1018E000B3004608B4004708B5000A168A112D2730
:1018F000831203133008C0003108C1003208C2004F
:1019000008004808803A753E031CEF2C0330C300E2
:101910004308A4004808F200F301F21BF3030A3065
:10192000F0000030F1000A168A110F240A128A15FD
:1019300070080A168A11AB220A128A15503E8400DA
:101940000A168A1100200A128A1583120313B000A6
:101950000A168A1100200A128A15B1000A168A1185
:1019600000200A128A15B2000330C4004408A40003
:101970000A30F7000030F8004808F900FA01F91BB6
:10198000FA030A168A11B9240A128A157708093E41
:101990000A168A11AB220A128A15503E84000A16D2
:1019A0008A1100200A128A1583120313B3000A1643
:1019B0008A1100200A128A15B4000A168A11002022
:1019C0000A128A15B5000A168A112D2783120313ED
:1019D0003008C0003108C1003208C20008000330DE
:1019E000C3004308A40048080A168A11AB220A1251
:1019F0008A15503E84000A168A1100200A128A15A0
:101A000083120313C0000A168A1100200A128A15D5
:101A1000C1000A168A110020C200080083160313B1
:101A2000860188010A168A1150230A128A150A169D
:101A30008A1165220A128A1583160317BB01BC019D
:101A4000B701B801BD01BE01B901BA010030A9005A
:101A50000030AA000030AB000030AC000030AD0018
:101A60000030AE009E308400CF3083160313C200D6
:101A70000408C3000B30C400420884008317000828
:101A8000C500C20A4308840045088000C30AC40B8D
:101A90003C2D90308400C130C2000408C3000E30D9
:101AA000C4004208840083170008C500C20A430826
:101AB000840045088000C30AC40B512D03300A1668
:101AC0008A1198220A128A1506300A168A1198225B
:101AD0000A128A150C300A168A1198220A128A15DF
:101AE00080300A168A1198220A128A150A168A115B
:101AF00047220A128A1580300A128A1500200A121B
:101B00008A15E5300A128A1500200A128A150A166B
:101B10008A1140220A128A1581300A128A15002081
:101B20000A128A1501300A168A112A230A128A1506
:101B300083160313C200C301420883160317BB00B8
:101B400083160313430883160317BC0000300A16DC
:101B50008A112A230A128A1583160313C200C301AD
:101B6000420883160317B70083160313430883162E
:101B70000317B8000A168A114E220A128A1532304B
:101B8000F0000030F1000A168A119C230A128A150F
:101B9000FC30831603173705B70000303805B8004E
:101BA0003B0883160313C300C201420883160317C0
:101BB000BB0083160313430883160317BC003708C2
:101BC0003B04BB0038083C04BC0000308312031304
:101BD000D000C030D100C030D2000030B000FA30A8
:101BE000B1004230B2000030A0008030A100473088
:101BF000A200831603173C08F901F9073B08F80116
:101C0000F8070A168A11BE220A128A15780883126A
:101C10000313A3007908A4007A08A5000A128A1108
:101C200003200A128A15831203132008B300210827
:101C3000B4002208B5000A168A112D270A128A1547
:101C4000831203133008D3003108D4003208D500C2
:101C50000A128A1534200A128A15831203135008B7
:101C600083160317A9008312031351088316031761
:101C7000AA0083120313520883160317AB007730B0
:101C800083160313C200420883120313E300831672
:101C90000317290883120313E400831603172A0885
:101CA00083120313E500831603172B088312031313
:101CB000E600AF300A128A1157220A128A158316DB
:101CC0000317BF01C0019E300A168A1176230A123B
:101CD0008A157108831603174002031D712E7008C0
:101CE0003F020318862E3F089E3E8400831700089B
:101CF0000A168A1185220A128A15013083160317E3
:101D0000BF070318C00A0030C007632E2F080A1649
:101D10008A1185220A128A158316031730080A16BB
:101D20008A1185220A128A1525300A168A118522FF
:101D30000A128A15C0300A168A1198220A128A15C8
:101D40000A168A1147220A128A1580300A128A1549
:101D500000200A128A15FE300A128A1500200A1283
:101D60008A15E3300A128A1500200A128A150A160B
:101D70008A1140220A128A1581300A128A1500201F
:101D80000A128A1501300A168A112A230A128A15A4
:101D900083160313C200C301420883160317BD0054
:101DA00083160313430883160317BE0000300A1678
:101DB0008A112A230A128A1583160313C200C3014B
:101DC000420883160317B9008316031343088316CA
:101DD0000317BA000A168A114E220A128A153230E7
:101DE000F0000030F1000A168A119C230A128A15AD
:101DF000FC30831603173905B90000303A05BA00E4
:101E00003D0883160313C300C2014208831603175B
:101E1000BD0083160313430883160317BE00390859
:101E20003D04BD003A083E04BE0066308312031331
:101E3000D0003B30D100C230D200B830B0002F30DB
:101E4000B1004330B2000030A0008030A100473024
:101E5000A200831603173E08F901F9073D08F801AF
:101E6000F8070A168A11BE220A128A157808831208
:101E70000313A3007908A4007A08A5000A128A11A6
:101E800003200A128A15831203132008B3002108C5
:101E9000B4002208B5000A168A112D270A128A15E5
:101EA000831203133008D3003108D4003208D50060
:101EB0000A128A1534200A128A1583120313500855
:101EC00083160317AC0083120313510883160317FC
:101ED000AD0083120313520883160317AE00773048
:101EE00083160313C200420883120313E300831610
:101EF00003172C0883120313E400831603172D081D
:101F000083120313E500831603172E0883120313AD
:101F1000E600B3300A128A1157220A128A15831674
:101F20000317BF01C00190300A168A1176230A12E6
:101F30008A157108831603174002031DA12F70082C
:101F40003F020318B62F3F08903E84008317000815
:101F50000A168A1185220A128A1501308316031780
:101F6000BF070318C00A0030C007932F33080A16B2
:101F70008A1185220A128A158316031734080A1655
:101F80008A1185220A128A158316031735080A1644
:101F90008A1185220A128A158316031736080A1633
:101FA0008A1185220A128A15DF300A168A118522C3
:101FB0000A128A1543300A168A1185220A128A15D6
:101FC0000A168A1147220A128A1580300A128A15C7
:101FD00000200A128A15FE300A128A1500200A1201
:101FE0008A150A168A114E220A128A153230F0001A
:101FF0000030F1000A168A119C230A128A151C2D42
:1020000010308A000408840A820700340134003446
:10201000003400340A3400340034003464340034B2
:1020200000340034E83403340034003410342734EE
:1020300000340034A0348634013400344034423457
:102040000F34003480349634983400340034E13452
:10205000F53405340034CA349A343B3400348034C7
:102060003F34CD34CC343D34D73423343C34123473
:1020700083343A34B734D1343834C634273437341F
:10208000383486343534C034D6343334CC342B34FD
:102090003234703489343034E734DB342E34E53470
:1020A0003C341E344234A2340D34003480343F3486
:1020B0000034203441340034C834423400347A349B
:1020C000443440341C3446345034C334473424340C
:1020D00074344934973418344B34BC34BE344C34E3
:1020E0006B346E344E340334153450347934AD349B
:0E20F0006034F33449347134253466340034DE
:102480000A168A11552283160313911408000A169E
:102490008A11552283160313111408000A168A1193
:1024A0005522831603131115080083160313110810
:1024B0001F3903191419552A080072087104700491
:1024C000031908008030F2060800831603138715ED
:1024D0000716283083120313940083160313910107
:1024E00094010930930008007E088A007F0882006A
:1024F00074220A168A118000840A04087D060319D2
:102500000034FF0A0319FE0A782AF60076088312BF
:10251000031386000814881008150130F0000030FD
:10252000F1000A168A119C23831203130811080074
:10253000F600760883120313860008108810081529
:102540000130F0000030F1000A168A119C2383123A
:1025500003130811080083120313A600A501261C0B
:10256000B52A2408FC007C08A5070310A40D03105D
:10257000A60CA608031DAF2A250808007808F0005D
:102580007908F100F2018E30FB007B08F300F401C2
:102590000A168A1174257008F8007108F90072088B
:1025A000FA000800543465346D3470346534723484
:1025B000613474347534723465343A342034003400
:1025C000483475346D34693464346934743479341E
:1025D0003A3420340034803083120313DF0660085D
:1025E000D0006108D1006208D2005D08D3005E0807
:1025F000D4005F08D5000A128A1534208312031311
:102600005008DD005108DE005208DF000800F40128
:10261000F501701C112B7208F4070318F50A7308F2
:10262000F50701300310F20DF30DFF3E031D122BD1
:1026300001300310F10CF00CFF3E031D192B710843
:102640007004031D092B7508F101F1077408F001EE
:10265000F0070800F1000A168A1155220A168A119D
:102660008316031391150A168A1155220A168A1128
:10267000831203131308F0007008F2000A168A117F
:1026800055220A168A11F108031D4A2B83160313DB
:1026900091164D2B83160313911211167208080020
:1026A0000130F0000030F1000A168A119C230A164E
:1026B0008A1138300A168A1198220A168A110830AF
:1026C0000A168A1198220A168A1101300A168A11EE
:1026D00098220A168A1106300A168A1198220A16BA
:1026E0008A110E300A168A1198220800F70077081E
:1026F000F2007208F6007608840083178008031938
:10270000862B0130F2007208F6077B2B7708F20067
:102710000130F300F209F309F20A0319F30A76080B
:10272000F4000130F50072087407F0007308031814
:10273000730A7507F1000800F201F30171087302D2
:10274000031DA42B7008720203180800F401F501A0
:1027500003307502E830031974020318BC2B0130F2
:10276000F4070318F50A0030F50703307502E83066
:1027700003197402031CAF2B0130F2070318F30A8C
:102780000030F3079E2B7308720471047004031960
:10279000062CF901F90AF31BDB2B0130F8000310BA
:1027A000F00DF10DF20DF30DF80BCF2B0130F80009
:1027B0007808F907CB2B73087702031DE92B720801
:1027C0007602031DE92B71087502031DE92B7008C1
:1027D0007402031CF92B7008F4027108031C710FBA
:1027E000F5027208031C720FF6027308031C730FC4
:1027F000F70201300310F30CF20CF10CF00CFF3E69
:10280000031DFA2B0130F902031DDB2B7708F300BF
:102810007608F2007508F1007408F0000800F6016F
:10282000F31F192CF209F309F20A0319F30AF6014E
:10283000F60AF11F202CF009F109F00A0319F10A38
:102840007108700403194D2CF501F50AF11B342CA5
:1028500001300310F00DF10DFF3E031D292C013056
:10286000F4007408F507262C71087302031D3A2C36
:1028700070087202031C422C7008F2027108031CDB
:10288000F303F30201300310F10CF00CFF3E031DC3
:10289000432C0130F502031D342C76080319552C06
:1028A000F209F309F20A0319F30A7308F101F107B7
:1028B0007208F001F0070800F21F832C0030F600C8
:1028C0000030F7008030F8007009F9007109FA0053
:1028D0007209FB00F90A0319FA0A0319FB0A7908BD
:1028E000F6077A0803187A0F762C772CF7077B08FF
:1028F00003187B0F7C2C7D2CF8077608F0007708F6
:10290000F1007808F200F51FAA2C0030F600003024
:10291000F7008030F8007309F9007409FA007509AE
:10292000FB00F90A0319FA0A0319FB0A7908F607EA
:102930007A0803187A0F9D2C9E2CF7077B08031842
:102940007B0FA32CA42CF8077608F3007708F4007B
:102950007808F5008030F2068030F50675087202BE
:10296000031D080074087102031D0800730870023B
:10297000080083120313A101F81FC52CF709F809F9
:10298000F70A0319F80AA101A10AFA1FD02CF909C4
:10299000FA09F90A0319FA0A0130FB007B08A106BB
:1029A000A201A301780877040319072DA001A00A4A
:1029B000F81BE62C01300310F70DF80DFF3E031D48
:1029C000DB2C0130FB007B08A007D82C0130031062
:1029D000A20DA30DFF3E031DE72C78087A02031D0C
:1029E000F32C77087902031CFC2C7708F90278088D
:1029F000031CFA03FA02221401300310F80CF70C3E
:102A0000FF3E031DFD2C0130A002031DE62C210812
:102A100003190F2DA209A309A20A0319A30A230867
:102A2000F801F8072208F701F70708000030FC005A
:102A30000030FB000030FA000030F9007308720427
:102A40007104700403196B2DFD01FD0AF31B362D73
:102A50000130F8000310F00DF10DF20DF30DF80B3D
:102A60002A2D0130F8007808FD07262D0130F800E6
:102A70000310F90DFA0DFB0DFC0DF80B382D730842
:102A80007702031D4D2D72087602031D4D2D71082E
:102A90007502031D4D2D70087402031C5E2D700815
:102AA000F4027108031C710FF5027208031C720F07
:102AB000F6027308031C730FF70279140130031038
:102AC000F30CF20CF10CF00CFF3E031D5F2D0130F6
:102AD000FD02031D362D7C08F3007B08F2007A0806
:102AE000F1007908F0000800730803197C2D7208C2
:102AF00071047004031D8F2D0030F0000030F100D0
:102B00000030F20008000130F5007508F3070130CD
:102B10000310F20CF10CF00CFF3E031D882DFE306B
:102B200072050319AA2D832D0130F5007508F307EE
:102B30000130F007003003180130F10700300318AE
:102B40000130F20701300310F20CF10CF00CFF3EE3
:102B5000031DA32DFF3072050319B92D942D0130EB
:102B6000F30201300310F00DF10DF20DFF3E031DD5
:102B7000B22DF11FAF2D7318C32DFF30F0057F303C
:102B8000F105FF30F2050310F30C7308F500F601B0
:102B9000F70110300310F50DF60DF70DFF3E031D84
:102BA000CA2D7508F0047608F1047708F204740859
:102BB00003190800F2170800831203134908CD0017
:102BC0004A08CE004B08CF0003104E0D4F0DD00029
:102BD0005008D600D608031DF62D0030CC0000307A
:102BE000CB000030CA000030C90008004908CD0001
:102BF0004A08CE004B08CF0017300310CF0CCE0C84
:102C0000CD0CFF3E031DFD2D4D08D0005008D10016
:102C1000CA17FF30C905FF30CA050030CB05490887
:102C2000D2004A08D3004B08D400D5018E30D6021A
:102C3000D61F382E5608803A8F3E0318282E0030B3
:102C4000CC000030CB000030CA000030C9000800C2
:102C500001300310D50CD40CD30CD20CFF3E031D55
:102C6000292E0130CD004D08D6070319532E282EEA
:102C700018305602031C502E0030CC000030CB0020
:102C80000030CA000030C90008000130CD00031038
:102C9000D20DD30DD40DD50DCD0B472E0130D6025C
:102CA000D608031D452E51080319612ED209D309F8
:102CB000D409D509D20A0319D30A0319D40A03196E
:102CC000D50A5508CC005408CB005308CA00520856
:102CD000C90008007008F6007108F7007208F800D3
:102CE0000310770D780DF900790883120313A500FE
:102CF000A508031D842E0030F3000030F2000030E0
:102D0000F1000030F00008007308F6007408F700C6
:102D10007508F8000310770D780DF9007908A40004
:102D2000A408031D9C2E0030F3000030F200003098
:102D3000F1000030F0000800F117FF30F005FF301F
:102D4000F1050030F205F417FF30F305FF30F4050C
:102D50000030F5050030A3000030A2000030A100D3
:102D60000030A0007F30A50298302407F6007608D6
:102D7000A5021830F6007608A4000130F600031012
:102D8000A00DA10DA20DA30DF60BBF2E75087202AA
:102D9000031DD02E74087102031DD02E730870021B
:102DA000031CDD2E7308F0027408031C740FF1027B
:102DB0007508031C750AF202201401300310F00D8F
:102DC000F10DF20DFF3E031DDE2E0130A402031DA6
:102DD000BD2EA51F092F2508803A973E0318F92E0E
:102DE0000030F3000030F2000030F1000030F0005D
:102DF000080001300310A30CA20CA10CA00CFF3E94
:102E0000031DFA2E0130F6007608A5070319242FBA
:102E1000F92E18302502031C212F0030F30000305A
:102E2000F2000030F1000030F00008000130F60040
:102E30000310A00DA10DA20DA30DF60B182F01304C
:102E4000A502A508031D162F2308F3002208F2008F
:102E50002108F1002008F000080083120313300855
:102E6000B6003108B7003208B8000310370D380D2E
:102E7000B9003908BA00BA08031D452F0030B00068
:102E80000030B1000030B20008003308B60034084A
:102E9000B7003508B8000310370D380DB9003908F0
:102EA000BF00BF08031D5B2F0030B0000030B10031
:102EB0000030B20008003F087B3EB6003608BA0773
:102EC0003008B6003108B7003208B80010300310DF
:102ED000B80CB70CB60CFF3E031D672F3608B900BF
:102EE0003908BF003308B6003408B7003508B80009
:102EF00010300310B80CB70CB60CFF3E031D792F31
:102F00003608B9003908BF068030B6003608BF055C
:102F1000B117B417FF30B305FF30B4050030B50565
:102F20000030BB000030BC000030BD000730B600F0
:102F30003608BE00301CAA2F3308BB073408031123
:102F40000318340A031DBC07350803110318350A9A
:102F5000031DBD0701300310B20CB10CB00CFF3ED5
:102F6000031DAB2F01300310B30DB40DB50DFF3EA3
:102F7000031DB32F0130BE02031D9A2F0930B60086
:102F80003608BE00301CD22F3308BB0734080311AB
:102F90000318340A031DBC07350803110318350A4A
:102FA000031DBD0701300310B20CB10CB00CFF3E85
:102FB000031DD32F01300310BD0CBC0CBB0CFF3E16
:102FC000031DDB2F0130BE02031DC22F3B08F000A2
:102FD0003C08F1003D08F2003A08B6003608F3005C
:102FE0003F08B7003708F4000A168A1174257008E4
:102FF00083120313B0007108B1007208B200080018
:02400E0071FF40
:00000001FF
