:060000000A128A11122809
:10000800FE00030EFA000408FB000A08FC00831235
:1000180003137F08FD000A128A11E3290A128A11C4
:100028001528BC01BD0183133C30FD000230FE00E1
:10003800F730FF00323084000A128A11EA22830165
:100048000A128A11272883160313860188010430AF
:100058008700303083120313900005309700831611
:1000680003130C15831203130C110B178B171014A1
:100078000A128A1198220A128A1180300A128A11E9
:10008800C0220A128A1150300A128A11D3220A1287
:100098008A1165300A128A11D3220A128A11723023
:1000A8000A128A11D3220A128A1169300A128A1195
:1000B800D3220A128A116F300A128A11D3220A1225
:1000C8008A1164300A128A11D3220A128A113A302C
:1000D8000A128A11D3220A128A11C0300A128A110E
:1000E800C0220A128A11103083120313A900273084
:1000F800AA003D08AC01AC073C08AB01AB070A12EB
:100108008A1137210A128A11831203132908323EF1
:100118008400831300080A128A11D3220A128A1152
:10012800E83083120313A9000330AA003D08A50193
:10013800A5073C08A401A4071030A2002730A3009B
:100148000A128A1194210A128A11831203132308AE
:10015800AC01AC072208AB01AB070A128A113721A0
:100168000A128A11831203132908323E840083136A
:1001780000080A128A11D3220A128A1164308312E3
:100188000313A9000030AA003D08A501A5073C08F3
:10019800A401A407E830A2000330A3000A128A11C0
:1001A80094210A128A11831203132308AC01AC07A5
:1001B8002208AB01AB070A128A1137210A128A11E9
:1001C800831203132908323E8400831300080A129D
:1001D8008A11D3220A128A110A3083120313A90042
:1001E8000030AA003D08A501A5073C08A401A40702
:1001F8006430A2000030A3000A128A1194210A1266
:100208008A11831203132308AC01AC072208AB013F
:10021800AB070A128A1137210A128A1183120313B3
:100228002908323E8400831300080A128A11D32257
:100238000A128A110A3083120313A2000030A300A5
:100248003D08A501A5073C08A401A4070A128A11C4
:1002580094210A128A11831203132208323E840061
:10026800831300086C2883120313AF01AA1F4329C4
:10027800A909AA09A90A0319AA0AAF01AF0AAC1F5A
:100288004E29AB09AC09AB0A0319AC0A0130AD0021
:100298002D08AF06B001B1012A08290403198529E0
:1002A800AE01AE0AAA1B642901300310A90DAA0DDC
:1002B800FF3E031D59290130AD002D08AE07562910
:1002C80001300310B00DB10DFF3E031D65292A084A
:1002D8002C02031D712929082B02031C7A292908DD
:1002E800AB022A08031CAC03AC0230140130031023
:1002F800AA0CA90CFF3E031D7B290130AE02031D89
:1003080064292F0803198D29B009B109B00A031906
:10031800B10A3108AA01AA073008A901A9070800EB
:1003280083120313A801A51FA029A409A509A40ADB
:100338000319A50AA801A80AA31FA729A209A309A6
:10034800A20A0319A30A230822040319D429A7011E
:10035800A70AA31BBB2901300310A20DA30DFF3E62
:10036800031DB0290130A6002608A707AD292308D8
:100378002502031DC12922082402031CC9292208B9
:10038800A4022308031CA503A50201300310A30C33
:10039800A20CFF3E031DCA290130A702031DBB2979
:1003A80028080319DC29A409A509A40A0319A50A20
:1003B8002508A301A3072408A201A2070800A00199
:1003C800A1018B130C1D192A0C118E018F01E83025
:1003D800F0000330F1001608F301F3071508F201E5
:1003E800F2070A128A1125220A128A117108831249
:1003F8000313A101A1077008A001A0072108F900B3
:100408002008F8000310F80DF90D0310F80DF90D88
:100418000310F80DF90D7808A0007908A10021084B
:10042800BD01BD072008BC01BC078B177D08FF0074
:100438007C088A007B0884007A0E8300FE0E7E0EFC
:100448000900F501F6017108700403195C2AF70127
:10045800F70AF11B3B2A01300310F00DF10DFF3EA6
:10046800031D302A0130F4007408F7072D2A0130E3
:100478000310F50DF60DFF3E031D3C2A71087302AB
:10048800031D482A70087202031C512A7008F202E0
:100498007108031CF303F302751401300310F10C07
:1004A800F00CFF3E031D522A0130F702031D3B2AC0
:1004B8007608F101F1077508F001F00708008312CA
:1004C80003132308A501A5072208A401A4072508EA
:1004D800240403190800A601A7012708803AFF0091
:1004E80083307F02031D7A2AE830260203188F2AF8
:1004F800013083120313A6070318A70A0030A707C1
:100508002708803AFF0083307F02031D8D2AE830D8
:100518002602031C7C2AFF3083120313A407031846
:10052800A50AFF30A5076B2A013083120313A20026
:100538000030A3000A128A1163220A128A11383085
:100548000A128A11C0220A128A1108300A128A1164
:10055800C0220A128A1101300A128A11C0220A1214
:100568008A1106300A128A11C0220A128A110E3024
:100578000A128A11C022080083120313A80028084F
:1005880086000810881008150130A2000030A3006A
:100598000A128A11632283120313081108008312B6
:1005A8000313A800280886000814881008150130CD
:1005B800A2000030A3000A128A11632283120313D7
:1005C800081108007E088A007F088200E6220A12C5
:1005D8008A118000840A04087D0603190034FF0A82
:1005E8000319FE0AEA2A30343134323433343434CD
:0A05F80035343634373438343934E2
:02400E0071FF40
:00000001FF
